{
  "abi": [
    {
      "inputs": [
        {
          "internalType": "bool",
          "name": "_val",
          "type": "bool"
        }
      ],
      "name": "f",
      "outputs": [],
      "stateMutability": "pure",
      "type": "function"
    },
    {
      "inputs": [
        {
          "internalType": "bool",
          "name": "_val",
          "type": "bool"
        }
      ],
      "name": "t",
      "outputs": [],
      "stateMutability": "pure",
      "type": "function"
    }
  ],
  "bytecode": {
    "object": "0x608060405234801561001057600080fd5b5060ca8061001f6000396000f3fe6080604052348015600f57600080fd5b506004361060325760003560e01c806340c5489d14603757806398c3a6c1146048575b600080fd5b60466042366004606d565b6057565b005b60466053366004606d565b6063565b80606057600080fd5b50565b8015606057600080fd5b600060208284031215607e57600080fd5b81358015158114608d57600080fd5b939250505056fea26469706673582212208a103f1c6b0ba2f7c08775034118eb439cdd98ba0fff1b70f612adfd415e26ed64736f6c63430008110033",
    "linkReferences": {}
  },
  "methodIdentifiers": {
    "f(bool)": "98c3a6c1",
    "t(bool)": "40c5489d"
  },
  "id": 32
}