{
  "abi": [
    {
      "inputs": [
        {
          "internalType": "uint256",
          "name": "_val",
          "type": "uint256"
        }
      ],
      "name": "toBytes32",
      "outputs": [
        {
          "internalType": "bytes32",
          "name": "",
          "type": "bytes32"
        }
      ],
      "stateMutability": "pure",
      "type": "function"
    },
    {
      "inputs": [
        {
          "internalType": "bytes32",
          "name": "_val",
          "type": "bytes32"
        }
      ],
      "name": "toUint256",
      "outputs": [
        {
          "internalType": "uint256",
          "name": "",
          "type": "uint256"
        }
      ],
      "stateMutability": "pure",
      "type": "function"
    }
  ],
  "bytecode": {
    "object": "0x6080604052348015600f57600080fd5b5060a58061001e6000396000f3fe6080604052348015600f57600080fd5b506004361060325760003560e01c806357c4833914603757806373aafb53146037575b600080fd5b604560423660046057565b90565b60405190815260200160405180910390f35b600060208284031215606857600080fd5b503591905056fea26469706673582212203f38f3838eeae50b5250e1da681a750c8204e93eb5c52dee650b673f84e958a164736f6c63430008110033",
    "linkReferences": {}
  },
  "methodIdentifiers": {
    "toBytes32(uint256)": "73aafb53",
    "toUint256(bytes32)": "57c48339"
  },
  "id": 37
}