{
  "abi": [
    {
      "inputs": [
        {
          "internalType": "bool",
          "name": "_a",
          "type": "bool"
        },
        {
          "internalType": "bool",
          "name": "_b",
          "type": "bool"
        }
      ],
      "name": "and",
      "outputs": [
        {
          "internalType": "bool",
          "name": "",
          "type": "bool"
        }
      ],
      "stateMutability": "pure",
      "type": "function"
    },
    {
      "inputs": [
        {
          "internalType": "uint256",
          "name": "_a",
          "type": "uint256"
        },
        {
          "internalType": "uint256",
          "name": "_b",
          "type": "uint256"
        }
      ],
      "name": "eq",
      "outputs": [
        {
          "internalType": "bool",
          "name": "",
          "type": "bool"
        }
      ],
      "stateMutability": "pure",
      "type": "function"
    },
    {
      "inputs": [
        {
          "internalType": "uint256",
          "name": "_a",
          "type": "uint256"
        },
        {
          "internalType": "uint256",
          "name": "_b",
          "type": "uint256"
        }
      ],
      "name": "gt",
      "outputs": [
        {
          "internalType": "bool",
          "name": "",
          "type": "bool"
        }
      ],
      "stateMutability": "pure",
      "type": "function"
    },
    {
      "inputs": [
        {
          "internalType": "uint256",
          "name": "_a",
          "type": "uint256"
        },
        {
          "internalType": "uint256",
          "name": "_b",
          "type": "uint256"
        }
      ],
      "name": "gte",
      "outputs": [
        {
          "internalType": "bool",
          "name": "",
          "type": "bool"
        }
      ],
      "stateMutability": "pure",
      "type": "function"
    },
    {
      "inputs": [
        {
          "internalType": "uint256",
          "name": "_a",
          "type": "uint256"
        },
        {
          "internalType": "uint256",
          "name": "_b",
          "type": "uint256"
        }
      ],
      "name": "lt",
      "outputs": [
        {
          "internalType": "bool",
          "name": "",
          "type": "bool"
        }
      ],
      "stateMutability": "pure",
      "type": "function"
    },
    {
      "inputs": [
        {
          "internalType": "uint256",
          "name": "_a",
          "type": "uint256"
        },
        {
          "internalType": "uint256",
          "name": "_b",
          "type": "uint256"
        }
      ],
      "name": "lte",
      "outputs": [
        {
          "internalType": "bool",
          "name": "",
          "type": "bool"
        }
      ],
      "stateMutability": "pure",
      "type": "function"
    },
    {
      "inputs": [
        {
          "internalType": "uint256",
          "name": "_a",
          "type": "uint256"
        },
        {
          "internalType": "uint256",
          "name": "_b",
          "type": "uint256"
        }
      ],
      "name": "ne",
      "outputs": [
        {
          "internalType": "bool",
          "name": "",
          "type": "bool"
        }
      ],
      "stateMutability": "pure",
      "type": "function"
    },
    {
      "inputs": [
        {
          "internalType": "bool",
          "name": "_a",
          "type": "bool"
        },
        {
          "internalType": "bool",
          "name": "_b",
          "type": "bool"
        }
      ],
      "name": "or",
      "outputs": [
        {
          "internalType": "bool",
          "name": "",
          "type": "bool"
        }
      ],
      "stateMutability": "pure",
      "type": "function"
    }
  ],
  "bytecode": {
    "object": "0x608060405234801561001057600080fd5b506101f9806100206000396000f3fe608060405234801561001057600080fd5b50600436106100885760003560e01c80639f6ee0fc1161005b5780639f6ee0fc146100ea578063b4773329146100fd578063ea6515c414610110578063f1f3da0e1461012357600080fd5b8063118fc88c1461008d57806321e5749b146100b357806332148d73146100c557806333151e4c146100d7575b600080fd5b61009f61009b366004610159565b1190565b604051901515815260200160405180910390f35b61009f6100c1366004610159565b1090565b61009f6100d3366004610159565b1490565b61009f6100e5366004610159565b141590565b61009f6100f8366004610190565b610136565b61009f61010b366004610159565b111590565b61009f61011e366004610159565b101590565b61009f610131366004610190565b610149565b60008280156101425750815b9392505050565b6000828061014257509092915050565b6000806040838503121561016c57600080fd5b50508035926020909101359150565b8035801515811461018b57600080fd5b919050565b600080604083850312156101a357600080fd5b6101ac8361017b565b91506101ba6020840161017b565b9050925092905056fea2646970667358221220ccbed7739b76ff6bed8058746208a08a7cdbf797c719e1588e0f4f3235b739de64736f6c63430008110033",
    "linkReferences": {}
  },
  "methodIdentifiers": {
    "and(bool,bool)": "9f6ee0fc",
    "eq(uint256,uint256)": "32148d73",
    "gt(uint256,uint256)": "21e5749b",
    "gte(uint256,uint256)": "b4773329",
    "lt(uint256,uint256)": "118fc88c",
    "lte(uint256,uint256)": "ea6515c4",
    "ne(uint256,uint256)": "33151e4c",
    "or(bool,bool)": "f1f3da0e"
  },
  "id": 38
}