{
  "abi": [
    {
      "inputs": [
        {
          "internalType": "address",
          "name": "_who",
          "type": "address"
        }
      ],
      "name": "balance",
      "outputs": [
        {
          "internalType": "uint256",
          "name": "",
          "type": "uint256"
        }
      ],
      "stateMutability": "view",
      "type": "function"
    },
    {
      "inputs": [],
      "name": "timestamp",
      "outputs": [
        {
          "internalType": "uint256",
          "name": "",
          "type": "uint256"
        }
      ],
      "stateMutability": "view",
      "type": "function"
    },
    {
      "inputs": [
        {
          "internalType": "address payable",
          "name": "_who",
          "type": "address"
        },
        {
          "internalType": "uint256",
          "name": "_amt",
          "type": "uint256"
        },
        {
          "internalType": "uint256",
          "name": "_gas",
          "type": "uint256"
        }
      ],
      "name": "transfer",
      "outputs": [
        {
          "internalType": "bool",
          "name": "",
          "type": "bool"
        }
      ],
      "stateMutability": "nonpayable",
      "type": "function"
    },
    {
      "inputs": [
        {
          "internalType": "address payable",
          "name": "_who",
          "type": "address"
        },
        {
          "internalType": "uint256",
          "name": "_amt",
          "type": "uint256"
        }
      ],
      "name": "transfer",
      "outputs": [
        {
          "internalType": "bool",
          "name": "",
          "type": "bool"
        }
      ],
      "stateMutability": "nonpayable",
      "type": "function"
    }
  ],
  "bytecode": {
    "object": "0x608060405234801561001057600080fd5b50610218806100206000396000f3fe608060405234801561001057600080fd5b506004361061004c5760003560e01c8063095bcdb614610051578063a9059cbb14610079578063b80777ea1461008c578063e3d670d71461009c575b600080fd5b61006461005f36600461015d565b6100b7565b60405190151581526020015b60405180910390f35b610064610087366004610192565b610118565b425b604051908152602001610070565b61008e6100aa3660046101be565b6001600160a01b03163190565b600080846001600160a01b03168385604051600060405180830381858888f193505050503d8060008114610107576040519150601f19603f3d011682016040523d82523d6000602084013e61010c565b606091505b50909695505050505050565b6040516000906001600160a01b0384169083156108fc0290849084818181858888f1979650505050505050565b6001600160a01b038116811461015a57600080fd5b50565b60008060006060848603121561017257600080fd5b833561017d81610145565b95602085013595506040909401359392505050565b600080604083850312156101a557600080fd5b82356101b081610145565b946020939093013593505050565b6000602082840312156101d057600080fd5b81356101db81610145565b939250505056fea2646970667358221220b1d2aeb1598904037f7677f46c3f170ed2e01d4fcb4354fecd88e34143476eb064736f6c63430008110033",
    "linkReferences": {}
  },
  "methodIdentifiers": {
    "balance(address)": "e3d670d7",
    "timestamp()": "b80777ea",
    "transfer(address,uint256)": "a9059cbb",
    "transfer(address,uint256,uint256)": "095bcdb6"
  },
  "id": 38
}