{
  "abi": [
    {
      "inputs": [
        {
          "internalType": "uint256",
          "name": "_a",
          "type": "uint256"
        },
        {
          "internalType": "uint256",
          "name": "_b",
          "type": "uint256"
        }
      ],
      "name": "add",
      "outputs": [
        {
          "internalType": "uint256",
          "name": "",
          "type": "uint256"
        }
      ],
      "stateMutability": "pure",
      "type": "function"
    }
  ],
  "bytecode": {
    "object": "0x608060405234801561001057600080fd5b5060d88061001f6000396000f3fe6080604052348015600f57600080fd5b506004361060285760003560e01c8063771602f714602d575b600080fd5b603c60383660046061565b604e565b60405190815260200160405180910390f35b6000605882846082565b90505b92915050565b60008060408385031215607357600080fd5b50508035926020909101359150565b80820180821115605b57634e487b7160e01b600052601160045260246000fdfea26469706673582212206a2e23018916df690b50f79c20110a0f8e7260620a2f480c11bcdaa81071b83664736f6c63430008110033",
    "linkReferences": {}
  },
  "methodIdentifiers": {
    "add(uint256,uint256)": "771602f7"
  },
  "id": 42
}