{
  "abi": [
    {
      "inputs": [
        {
          "internalType": "string",
          "name": "_name",
          "type": "string"
        },
        {
          "internalType": "string",
          "name": "_symbol",
          "type": "string"
        },
        {
          "internalType": "address",
          "name": "_wantToken",
          "type": "address"
        },
        {
          "internalType": "address",
          "name": "_keeper",
          "type": "address"
        },
        {
          "internalType": "address",
          "name": "_governance",
          "type": "address"
        },
        {
          "internalType": "uint256",
          "name": "_maxDepositLimit",
          "type": "uint256"
        }
      ],
      "stateMutability": "nonpayable",
      "type": "constructor"
    },
    {
      "anonymous": false,
      "inputs": [
        {
          "indexed": true,
          "internalType": "address",
          "name": "owner",
          "type": "address"
        },
        {
          "indexed": true,
          "internalType": "address",
          "name": "spender",
          "type": "address"
        },
        {
          "indexed": false,
          "internalType": "uint256",
          "name": "value",
          "type": "uint256"
        }
      ],
      "name": "Approval",
      "type": "event"
    },
    {
      "anonymous": false,
      "inputs": [
        {
          "indexed": false,
          "internalType": "uint256",
          "name": "oldDepositCap",
          "type": "uint256"
        },
        {
          "indexed": false,
          "internalType": "uint256",
          "name": "newDepositCap",
          "type": "uint256"
        }
      ],
      "name": "DepositCapUpdated",
      "type": "event"
    },
    {
      "anonymous": false,
      "inputs": [
        {
          "indexed": false,
          "internalType": "bool",
          "name": "emergencyMode",
          "type": "bool"
        }
      ],
      "name": "EmergencyModeStatus",
      "type": "event"
    },
    {
      "anonymous": false,
      "inputs": [
        {
          "indexed": false,
          "internalType": "uint256",
          "name": "fees",
          "type": "uint256"
        }
      ],
      "name": "FeesCollected",
      "type": "event"
    },
    {
      "anonymous": false,
      "inputs": [
        {
          "indexed": false,
          "internalType": "uint256",
          "name": "boostedYield",
          "type": "uint256"
        },
        {
          "indexed": false,
          "internalType": "uint256",
          "name": "lastEpochYield",
          "type": "uint256"
        }
      ],
      "name": "HarvestedYield",
      "type": "event"
    },
    {
      "anonymous": false,
      "inputs": [
        {
          "indexed": true,
          "internalType": "address",
          "name": "oldExecutor",
          "type": "address"
        },
        {
          "indexed": true,
          "internalType": "address",
          "name": "newExecutor",
          "type": "address"
        }
      ],
      "name": "TradeExecutorChanged",
      "type": "event"
    },
    {
      "anonymous": false,
      "inputs": [
        {
          "indexed": true,
          "internalType": "address",
          "name": "from",
          "type": "address"
        },
        {
          "indexed": true,
          "internalType": "address",
          "name": "to",
          "type": "address"
        },
        {
          "indexed": false,
          "internalType": "uint256",
          "name": "value",
          "type": "uint256"
        }
      ],
      "name": "Transfer",
      "type": "event"
    },
    {
      "anonymous": false,
      "inputs": [
        {
          "indexed": false,
          "internalType": "uint256",
          "name": "oldFee",
          "type": "uint256"
        },
        {
          "indexed": false,
          "internalType": "uint256",
          "name": "newFee",
          "type": "uint256"
        }
      ],
      "name": "UpdateExitFee",
      "type": "event"
    },
    {
      "anonymous": false,
      "inputs": [
        {
          "indexed": false,
          "internalType": "uint256",
          "name": "oldFee",
          "type": "uint256"
        },
        {
          "indexed": false,
          "internalType": "uint256",
          "name": "newFee",
          "type": "uint256"
        }
      ],
      "name": "UpdatePerformanceFee",
      "type": "event"
    },
    {
      "anonymous": false,
      "inputs": [
        {
          "indexed": true,
          "internalType": "address",
          "name": "oldGovernance",
          "type": "address"
        },
        {
          "indexed": true,
          "internalType": "address",
          "name": "newGovernance",
          "type": "address"
        }
      ],
      "name": "UpdatedGovernance",
      "type": "event"
    },
    {
      "anonymous": false,
      "inputs": [
        {
          "indexed": true,
          "internalType": "uint256",
          "name": "oldThreshold",
          "type": "uint256"
        },
        {
          "indexed": true,
          "internalType": "uint256",
          "name": "newThreshol",
          "type": "uint256"
        }
      ],
      "name": "UpdatedHarvestThreshold",
      "type": "event"
    },
    {
      "anonymous": false,
      "inputs": [
        {
          "indexed": true,
          "internalType": "address",
          "name": "oldKeeper",
          "type": "address"
        },
        {
          "indexed": true,
          "internalType": "address",
          "name": "newKeeper",
          "type": "address"
        }
      ],
      "name": "UpdatedKeeper",
      "type": "event"
    },
    {
      "anonymous": false,
      "inputs": [
        {
          "indexed": true,
          "internalType": "address",
          "name": "depositor",
          "type": "address"
        },
        {
          "indexed": true,
          "internalType": "address",
          "name": "recipient",
          "type": "address"
        },
        {
          "indexed": false,
          "internalType": "uint256",
          "name": "amountIn",
          "type": "uint256"
        }
      ],
      "name": "VaultDeposit",
      "type": "event"
    },
    {
      "anonymous": false,
      "inputs": [
        {
          "indexed": true,
          "internalType": "address",
          "name": "depositor",
          "type": "address"
        },
        {
          "indexed": true,
          "internalType": "address",
          "name": "recipient",
          "type": "address"
        },
        {
          "indexed": false,
          "internalType": "uint256",
          "name": "amountOut",
          "type": "uint256"
        }
      ],
      "name": "VaultWithdraw",
      "type": "event"
    },
    {
      "anonymous": false,
      "inputs": [
        {
          "indexed": true,
          "internalType": "address",
          "name": "executor",
          "type": "address"
        }
      ],
      "name": "YieldExecutorAdded",
      "type": "event"
    },
    {
      "anonymous": false,
      "inputs": [
        {
          "indexed": true,
          "internalType": "address",
          "name": "executor",
          "type": "address"
        },
        {
          "indexed": false,
          "internalType": "uint256",
          "name": "underlyingAmount",
          "type": "uint256"
        }
      ],
      "name": "YieldExecutorDeposit",
      "type": "event"
    },
    {
      "anonymous": false,
      "inputs": [
        {
          "indexed": true,
          "internalType": "address",
          "name": "executor",
          "type": "address"
        }
      ],
      "name": "YieldExecutorRemoved",
      "type": "event"
    },
    {
      "anonymous": false,
      "inputs": [
        {
          "indexed": true,
          "internalType": "address",
          "name": "executor",
          "type": "address"
        },
        {
          "indexed": false,
          "internalType": "uint256",
          "name": "underlyingAmount",
          "type": "uint256"
        }
      ],
      "name": "YieldExecutorWithdrawal",
      "type": "event"
    },
    {
      "inputs": [],
      "name": "DOMAIN_SEPARATOR",
      "outputs": [
        {
          "internalType": "bytes32",
          "name": "",
          "type": "bytes32"
        }
      ],
      "stateMutability": "view",
      "type": "function"
    },
    {
      "inputs": [],
      "name": "DUST_LIMIT",
      "outputs": [
        {
          "internalType": "uint256",
          "name": "",
          "type": "uint256"
        }
      ],
      "stateMutability": "view",
      "type": "function"
    },
    {
      "inputs": [],
      "name": "MAX_BPS",
      "outputs": [
        {
          "internalType": "uint256",
          "name": "",
          "type": "uint256"
        }
      ],
      "stateMutability": "view",
      "type": "function"
    },
    {
      "inputs": [],
      "name": "acceptGovernance",
      "outputs": [],
      "stateMutability": "nonpayable",
      "type": "function"
    },
    {
      "inputs": [
        {
          "internalType": "address",
          "name": "_yieldExecutor",
          "type": "address"
        }
      ],
      "name": "addYieldExecutor",
      "outputs": [],
      "stateMutability": "nonpayable",
      "type": "function"
    },
    {
      "inputs": [
        {
          "internalType": "address",
          "name": "owner",
          "type": "address"
        },
        {
          "internalType": "address",
          "name": "spender",
          "type": "address"
        }
      ],
      "name": "allowance",
      "outputs": [
        {
          "internalType": "uint256",
          "name": "",
          "type": "uint256"
        }
      ],
      "stateMutability": "view",
      "type": "function"
    },
    {
      "inputs": [
        {
          "internalType": "address",
          "name": "spender",
          "type": "address"
        },
        {
          "internalType": "uint256",
          "name": "amount",
          "type": "uint256"
        }
      ],
      "name": "approve",
      "outputs": [
        {
          "internalType": "bool",
          "name": "",
          "type": "bool"
        }
      ],
      "stateMutability": "nonpayable",
      "type": "function"
    },
    {
      "inputs": [
        {
          "internalType": "address",
          "name": "account",
          "type": "address"
        }
      ],
      "name": "balanceOf",
      "outputs": [
        {
          "internalType": "uint256",
          "name": "",
          "type": "uint256"
        }
      ],
      "stateMutability": "view",
      "type": "function"
    },
    {
      "inputs": [
        {
          "internalType": "uint256",
          "name": "feeAmount",
          "type": "uint256"
        }
      ],
      "name": "collectFee",
      "outputs": [],
      "stateMutability": "nonpayable",
      "type": "function"
    },
    {
      "inputs": [],
      "name": "decimals",
      "outputs": [
        {
          "internalType": "uint8",
          "name": "",
          "type": "uint8"
        }
      ],
      "stateMutability": "view",
      "type": "function"
    },
    {
      "inputs": [
        {
          "internalType": "address",
          "name": "spender",
          "type": "address"
        },
        {
          "internalType": "uint256",
          "name": "subtractedValue",
          "type": "uint256"
        }
      ],
      "name": "decreaseAllowance",
      "outputs": [
        {
          "internalType": "bool",
          "name": "",
          "type": "bool"
        }
      ],
      "stateMutability": "nonpayable",
      "type": "function"
    },
    {
      "inputs": [
        {
          "internalType": "uint256",
          "name": "amountIn",
          "type": "uint256"
        },
        {
          "internalType": "address",
          "name": "receiver",
          "type": "address"
        }
      ],
      "name": "deposit",
      "outputs": [
        {
          "internalType": "uint256",
          "name": "shares",
          "type": "uint256"
        }
      ],
      "stateMutability": "payable",
      "type": "function"
    },
    {
      "inputs": [
        {
          "internalType": "address",
          "name": "_executor",
          "type": "address"
        },
        {
          "internalType": "uint256",
          "name": "_amount",
          "type": "uint256"
        }
      ],
      "name": "depositIntoYieldExecutor",
      "outputs": [
        {
          "internalType": "uint256",
          "name": "lp",
          "type": "uint256"
        }
      ],
      "stateMutability": "nonpayable",
      "type": "function"
    },
    {
      "inputs": [],
      "name": "emergencyMode",
      "outputs": [
        {
          "internalType": "bool",
          "name": "",
          "type": "bool"
        }
      ],
      "stateMutability": "view",
      "type": "function"
    },
    {
      "inputs": [],
      "name": "exitFee",
      "outputs": [
        {
          "internalType": "uint256",
          "name": "",
          "type": "uint256"
        }
      ],
      "stateMutability": "view",
      "type": "function"
    },
    {
      "inputs": [],
      "name": "governance",
      "outputs": [
        {
          "internalType": "address",
          "name": "",
          "type": "address"
        }
      ],
      "stateMutability": "view",
      "type": "function"
    },
    {
      "inputs": [
        {
          "internalType": "bytes[]",
          "name": "_claimYieldData",
          "type": "bytes[]"
        },
        {
          "internalType": "bytes",
          "name": "_withdrawData",
          "type": "bytes"
        },
        {
          "internalType": "bool",
          "name": "_shouldPlaceTrade",
          "type": "bool"
        }
      ],
      "name": "harvest",
      "outputs": [],
      "stateMutability": "nonpayable",
      "type": "function"
    },
    {
      "inputs": [],
      "name": "harvestThreshold",
      "outputs": [
        {
          "internalType": "uint256",
          "name": "",
          "type": "uint256"
        }
      ],
      "stateMutability": "view",
      "type": "function"
    },
    {
      "inputs": [
        {
          "internalType": "address",
          "name": "spender",
          "type": "address"
        },
        {
          "internalType": "uint256",
          "name": "addedValue",
          "type": "uint256"
        }
      ],
      "name": "increaseAllowance",
      "outputs": [
        {
          "internalType": "bool",
          "name": "",
          "type": "bool"
        }
      ],
      "stateMutability": "nonpayable",
      "type": "function"
    },
    {
      "inputs": [
        {
          "internalType": "address",
          "name": "_yieldExecutor",
          "type": "address"
        }
      ],
      "name": "isActiveYieldExecutor",
      "outputs": [],
      "stateMutability": "view",
      "type": "function"
    },
    {
      "inputs": [],
      "name": "isEmergencyMode",
      "outputs": [],
      "stateMutability": "view",
      "type": "function"
    },
    {
      "inputs": [],
      "name": "keeper",
      "outputs": [
        {
          "internalType": "address",
          "name": "",
          "type": "address"
        }
      ],
      "stateMutability": "view",
      "type": "function"
    },
    {
      "inputs": [],
      "name": "lastEpochYield",
      "outputs": [
        {
          "internalType": "uint256",
          "name": "",
          "type": "uint256"
        }
      ],
      "stateMutability": "view",
      "type": "function"
    },
    {
      "inputs": [],
      "name": "lastHarvestedAt",
      "outputs": [
        {
          "internalType": "uint256",
          "name": "",
          "type": "uint256"
        }
      ],
      "stateMutability": "view",
      "type": "function"
    },
    {
      "inputs": [],
      "name": "maxDepositLimit",
      "outputs": [
        {
          "internalType": "uint256",
          "name": "",
          "type": "uint256"
        }
      ],
      "stateMutability": "view",
      "type": "function"
    },
    {
      "inputs": [],
      "name": "name",
      "outputs": [
        {
          "internalType": "string",
          "name": "",
          "type": "string"
        }
      ],
      "stateMutability": "view",
      "type": "function"
    },
    {
      "inputs": [
        {
          "internalType": "address",
          "name": "owner",
          "type": "address"
        }
      ],
      "name": "nonces",
      "outputs": [
        {
          "internalType": "uint256",
          "name": "",
          "type": "uint256"
        }
      ],
      "stateMutability": "view",
      "type": "function"
    },
    {
      "inputs": [],
      "name": "pendingFee",
      "outputs": [
        {
          "internalType": "uint256",
          "name": "",
          "type": "uint256"
        }
      ],
      "stateMutability": "view",
      "type": "function"
    },
    {
      "inputs": [],
      "name": "pendingGovernance",
      "outputs": [
        {
          "internalType": "address",
          "name": "",
          "type": "address"
        }
      ],
      "stateMutability": "view",
      "type": "function"
    },
    {
      "inputs": [],
      "name": "performanceFee",
      "outputs": [
        {
          "internalType": "uint256",
          "name": "",
          "type": "uint256"
        }
      ],
      "stateMutability": "view",
      "type": "function"
    },
    {
      "inputs": [
        {
          "internalType": "address",
          "name": "owner",
          "type": "address"
        },
        {
          "internalType": "address",
          "name": "spender",
          "type": "address"
        },
        {
          "internalType": "uint256",
          "name": "value",
          "type": "uint256"
        },
        {
          "internalType": "uint256",
          "name": "deadline",
          "type": "uint256"
        },
        {
          "internalType": "uint8",
          "name": "v",
          "type": "uint8"
        },
        {
          "internalType": "bytes32",
          "name": "r",
          "type": "bytes32"
        },
        {
          "internalType": "bytes32",
          "name": "s",
          "type": "bytes32"
        }
      ],
      "name": "permit",
      "outputs": [],
      "stateMutability": "nonpayable",
      "type": "function"
    },
    {
      "inputs": [],
      "name": "prevSharePrice",
      "outputs": [
        {
          "internalType": "uint256",
          "name": "",
          "type": "uint256"
        }
      ],
      "stateMutability": "view",
      "type": "function"
    },
    {
      "inputs": [
        {
          "internalType": "address",
          "name": "_yieldExecutor",
          "type": "address"
        }
      ],
      "name": "removeYieldExecutor",
      "outputs": [],
      "stateMutability": "nonpayable",
      "type": "function"
    },
    {
      "inputs": [
        {
          "internalType": "uint256",
          "name": "_maxDepositLimit",
          "type": "uint256"
        }
      ],
      "name": "setDepositCapLimit",
      "outputs": [],
      "stateMutability": "nonpayable",
      "type": "function"
    },
    {
      "inputs": [
        {
          "internalType": "bool",
          "name": "_emergencyMode",
          "type": "bool"
        }
      ],
      "name": "setEmergencyMode",
      "outputs": [],
      "stateMutability": "nonpayable",
      "type": "function"
    },
    {
      "inputs": [
        {
          "internalType": "uint256",
          "name": "_fee",
          "type": "uint256"
        }
      ],
      "name": "setExitFee",
      "outputs": [],
      "stateMutability": "nonpayable",
      "type": "function"
    },
    {
      "inputs": [
        {
          "internalType": "address",
          "name": "_governance",
          "type": "address"
        }
      ],
      "name": "setGovernance",
      "outputs": [],
      "stateMutability": "nonpayable",
      "type": "function"
    },
    {
      "inputs": [
        {
          "internalType": "uint256",
          "name": "_newHarvestThreshold",
          "type": "uint256"
        }
      ],
      "name": "setHarvestThreshold",
      "outputs": [],
      "stateMutability": "nonpayable",
      "type": "function"
    },
    {
      "inputs": [
        {
          "internalType": "address",
          "name": "_keeper",
          "type": "address"
        }
      ],
      "name": "setKeeper",
      "outputs": [],
      "stateMutability": "nonpayable",
      "type": "function"
    },
    {
      "inputs": [
        {
          "internalType": "uint256",
          "name": "_fee",
          "type": "uint256"
        }
      ],
      "name": "setPerformanceFee",
      "outputs": [],
      "stateMutability": "nonpayable",
      "type": "function"
    },
    {
      "inputs": [
        {
          "internalType": "address",
          "name": "_tradeExecutor",
          "type": "address"
        }
      ],
      "name": "setTradeExecutor",
      "outputs": [],
      "stateMutability": "nonpayable",
      "type": "function"
    },
    {
      "inputs": [
        {
          "internalType": "address",
          "name": "_token",
          "type": "address"
        }
      ],
      "name": "sweep",
      "outputs": [],
      "stateMutability": "nonpayable",
      "type": "function"
    },
    {
      "inputs": [],
      "name": "symbol",
      "outputs": [
        {
          "internalType": "string",
          "name": "",
          "type": "string"
        }
      ],
      "stateMutability": "view",
      "type": "function"
    },
    {
      "inputs": [],
      "name": "totalSupply",
      "outputs": [
        {
          "internalType": "uint256",
          "name": "",
          "type": "uint256"
        }
      ],
      "stateMutability": "view",
      "type": "function"
    },
    {
      "inputs": [],
      "name": "totalVaultFunds",
      "outputs": [
        {
          "internalType": "uint256",
          "name": "",
          "type": "uint256"
        }
      ],
      "stateMutability": "view",
      "type": "function"
    },
    {
      "inputs": [],
      "name": "totalYieldExecutorFunds",
      "outputs": [
        {
          "internalType": "uint256",
          "name": "",
          "type": "uint256"
        }
      ],
      "stateMutability": "view",
      "type": "function"
    },
    {
      "inputs": [],
      "name": "totalYieldExecutors",
      "outputs": [
        {
          "internalType": "uint256",
          "name": "",
          "type": "uint256"
        }
      ],
      "stateMutability": "view",
      "type": "function"
    },
    {
      "inputs": [],
      "name": "tradeExecutor",
      "outputs": [
        {
          "internalType": "contract ITradeExecutor",
          "name": "",
          "type": "address"
        }
      ],
      "stateMutability": "view",
      "type": "function"
    },
    {
      "inputs": [
        {
          "internalType": "address",
          "name": "to",
          "type": "address"
        },
        {
          "internalType": "uint256",
          "name": "amount",
          "type": "uint256"
        }
      ],
      "name": "transfer",
      "outputs": [
        {
          "internalType": "bool",
          "name": "",
          "type": "bool"
        }
      ],
      "stateMutability": "nonpayable",
      "type": "function"
    },
    {
      "inputs": [
        {
          "internalType": "address",
          "name": "from",
          "type": "address"
        },
        {
          "internalType": "address",
          "name": "to",
          "type": "address"
        },
        {
          "internalType": "uint256",
          "name": "amount",
          "type": "uint256"
        }
      ],
      "name": "transferFrom",
      "outputs": [
        {
          "internalType": "bool",
          "name": "",
          "type": "bool"
        }
      ],
      "stateMutability": "nonpayable",
      "type": "function"
    },
    {
      "inputs": [],
      "name": "wantToken",
      "outputs": [
        {
          "internalType": "address",
          "name": "",
          "type": "address"
        }
      ],
      "stateMutability": "view",
      "type": "function"
    },
    {
      "inputs": [
        {
          "internalType": "uint256",
          "name": "sharesIn",
          "type": "uint256"
        },
        {
          "internalType": "address",
          "name": "receiver",
          "type": "address"
        }
      ],
      "name": "withdraw",
      "outputs": [
        {
          "internalType": "uint256",
          "name": "amountOut",
          "type": "uint256"
        }
      ],
      "stateMutability": "nonpayable",
      "type": "function"
    },
    {
      "inputs": [
        {
          "internalType": "address",
          "name": "_executor",
          "type": "address"
        },
        {
          "internalType": "uint256",
          "name": "_lpTokens",
          "type": "uint256"
        }
      ],
      "name": "withdrawFromYieldExecutor",
      "outputs": [
        {
          "internalType": "uint256",
          "name": "amountOut",
          "type": "uint256"
        }
      ],
      "stateMutability": "nonpayable",
      "type": "function"
    },
    {
      "inputs": [
        {
          "internalType": "uint256",
          "name": "_index",
          "type": "uint256"
        }
      ],
      "name": "yieldExecutorByIndex",
      "outputs": [
        {
          "internalType": "address",
          "name": "",
          "type": "address"
        }
      ],
      "stateMutability": "view",
      "type": "function"
    }
  ],
  "bytecode": {
    "object": "0x610180604052620891c0600b556000196011553480156200001f57600080fd5b50604051620044f6380380620044f68339810160408190526200004291620002be565b6040805180820190915260018152603160f81b602082015286908190818860036200006e8382620003f7565b5060046200007d8282620003f7565b5050825160208085019190912083518483012060e08290526101008190524660a0818152604080517f8b73c3c69bb8fe3d512ecc4cf759cc79239f7b179b0ffacaa9a75d522b39400f81880181905281830187905260608201869052608082019490945230818401528151808203909301835260c0019052805194019390932091935091906080523060c052610120525050600160075550506040805163313ce56760e01b815290516001600160a01b038716925063313ce567916004808201926020929091908290030181865afa1580156200015e573d6000803e3d6000fd5b505050506040513d601f19601f82011682018060405250810190620001849190620004c3565b60ff16610160526001600160a01b039384166101405260088054610100600160a81b0319166101009486169490940293909317909255600980546001600160a01b0319169190931617909155600d5550620004ef9050565b634e487b7160e01b600052604160045260246000fd5b600082601f8301126200020457600080fd5b81516001600160401b0380821115620002215762000221620001dc565b604051601f8301601f19908116603f011681019082821181831017156200024c576200024c620001dc565b816040528381526020925086838588010111156200026957600080fd5b600091505b838210156200028d57858201830151818301840152908201906200026e565b600093810190920192909252949350505050565b80516001600160a01b0381168114620002b957600080fd5b919050565b60008060008060008060c08789031215620002d857600080fd5b86516001600160401b0380821115620002f057600080fd5b620002fe8a838b01620001f2565b975060208901519150808211156200031557600080fd5b506200032489828a01620001f2565b9550506200033560408801620002a1565b93506200034560608801620002a1565b92506200035560808801620002a1565b915060a087015190509295509295509295565b600181811c908216806200037d57607f821691505b6020821081036200039e57634e487b7160e01b600052602260045260246000fd5b50919050565b601f821115620003f257600081815260208120601f850160051c81016020861015620003cd5750805b601f850160051c820191505b81811015620003ee57828155600101620003d9565b5050505b505050565b81516001600160401b03811115620004135762000413620001dc565b6200042b8162000424845462000368565b84620003a4565b602080601f8311600181146200046357600084156200044a5750858301515b600019600386901b1c1916600185901b178555620003ee565b600085815260208120601f198616915b82811015620004945788860151825594840194600190910190840162000473565b5085821015620004b35787850151600019600388901b60f8161c191681555b5050505050600190811b01905550565b600060208284031215620004d657600080fd5b815160ff81168114620004e857600080fd5b9392505050565b60805160a05160c05160e05161010051610120516101405161016051613f38620005be60003960006104e20152600081816108d801528181610a3a01528181610c2201528181610ce20152818161107301528181611180015281816115e8015281816118cf01528181611a6201528181611b1601528181611b8f01528181611c57015281816121d0015281816128e6015281816129ea0152612ec8015260006132b501526000613304015260006132df01526000613238015260006132620152600061328c0152613f386000f3fe6080604052600436106103345760003560e01c806370897b23116101ab578063ab033ea9116100f7578063d505accf11610095578063e662822e1161006f578063e662822e1461095a578063ecb9da7714610970578063f39c38a014610986578063fd967f47146109a657600080fd5b8063d505accf146108fa578063dd62ed3e1461091a578063e5a583a91461093a57600080fd5b8063b63c44e7116100d1578063b63c44e714610870578063be32b3f814610886578063cf8294a2146108a6578063d23e0480146108c657600080fd5b8063ab033ea91461080b578063aced16611461082b578063b595afe81461085057600080fd5b806395d89b4111610164578063a7f070111161013e578063a7f070111461078b578063a9059cbb146107ab578063a969ff0a146107cb578063aa4132bf146107eb57600080fd5b806395d89b41146107405780639bf4ea9514610755578063a457c2d71461076b57600080fd5b806370897b231461067f57806370a082311461069f578063748747e6146106d55780637ecebe00146106f557806387788782146107155780638b22ce3c1461072b57600080fd5b8063313ce567116102855780635767c65911610223578063643090bc116101fd578063643090bc146106165780636ab02b151461062c5780636e553f651461064c5780636fd829991461065f57600080fd5b80635767c659146105a85780635aa6e675146105c85780636284ae411461060057600080fd5b8063421934731161025f5780634219347314610541578063448566591461055d57806352bdb7971461057357806353ff50c91461059357600080fd5b8063313ce567146104ce5780633644e5151461050c578063395093511461052157600080fd5b806318160ddd116102f257806320a194b8116102cc57806320a194b814610464578063238efcbc1461047957806323b872dd1461048e57806324e767c3146104ae57600080fd5b806318160ddd1461041a57806318515a831461042f5780631e3f7f011461044457600080fd5b8062f714ce1461033957806301681a621461036c57806306fdde031461038e5780630905f560146103b0578063095ea7b3146103da5780630ee5c044146103fa575b600080fd5b34801561034557600080fd5b506103596103543660046139b5565b6109bc565b6040519081526020015b60405180910390f35b34801561037857600080fd5b5061038c6103873660046139e5565b610dc0565b005b34801561039a57600080fd5b506103a3610ede565b6040516103639190613a09565b3480156103bc57600080fd5b506008546103ca9060ff1681565b6040519015158152602001610363565b3480156103e657600080fd5b506103ca6103f5366004613a57565b610f70565b34801561040657600080fd5b5061038c6104153660046139e5565b610f88565b34801561042657600080fd5b50600254610359565b34801561043b57600080fd5b5061035961115e565b34801561045057600080fd5b5061035961045f366004613a57565b61120c565b34801561047057600080fd5b5061038c611234565b34801561048557600080fd5b5061038c611279565b34801561049a57600080fd5b506103ca6104a9366004613a83565b611328565b3480156104ba57600080fd5b5061038c6104c9366004613b2b565b61134c565b3480156104da57600080fd5b5060405160ff7f0000000000000000000000000000000000000000000000000000000000000000168152602001610363565b34801561051857600080fd5b50610359611701565b34801561052d57600080fd5b506103ca61053c366004613a57565b61170b565b34801561054d57600080fd5b50610359670de0b6b3a764000081565b34801561056957600080fd5b50610359600b5481565b34801561057f57600080fd5b5061038c61058e366004613bda565b61172d565b34801561059f57600080fd5b50610359611776565b3480156105b457600080fd5b5061038c6105c33660046139e5565b6117e4565b3480156105d457600080fd5b506009546105e8906001600160a01b031681565b6040516001600160a01b039091168152602001610363565b34801561060c57600080fd5b5061035960145481565b34801561062257600080fd5b5061035960105481565b34801561063857600080fd5b5061038c610647366004613bda565b6119d4565b61035961065a3660046139b5565b611a10565b34801561066b57600080fd5b5061038c61067a3660046139e5565b611e61565b34801561068b57600080fd5b5061038c61069a366004613bda565b611f19565b3480156106ab57600080fd5b506103596106ba3660046139e5565b6001600160a01b031660009081526020819052604090205490565b3480156106e157600080fd5b5061038c6106f03660046139e5565b611fac565b34801561070157600080fd5b506103596107103660046139e5565b61201b565b34801561072157600080fd5b5061035960135481565b34801561073757600080fd5b50610359612039565b34801561074c57600080fd5b506103a36120f3565b34801561076157600080fd5b5061035960125481565b34801561077757600080fd5b506103ca610786366004613a57565b612102565b34801561079757600080fd5b50600f546105e8906001600160a01b031681565b3480156107b757600080fd5b506103ca6107c6366004613a57565b61217d565b3480156107d757600080fd5b5061038c6107e6366004613bda565b61218b565b3480156107f757600080fd5b5061038c6108063660046139e5565b612293565b34801561081757600080fd5b5061038c6108263660046139e5565b6123fd565b34801561083757600080fd5b506008546105e89061010090046001600160a01b031681565b34801561085c57600080fd5b506105e861086b366004613bda565b612427565b34801561087c57600080fd5b50610359600d5481565b34801561089257600080fd5b5061038c6108a1366004613bf3565b6124a2565b3480156108b257600080fd5b506103596108c1366004613a57565b6124f1565b3480156108d257600080fd5b506105e87f000000000000000000000000000000000000000000000000000000000000000081565b34801561090657600080fd5b5061038c610915366004613c10565b61250d565b34801561092657600080fd5b50610359610935366004613c87565b612671565b34801561094657600080fd5b5061038c610955366004613bda565b61269c565b34801561096657600080fd5b5061035960115481565b34801561097c57600080fd5b50610359600c5481565b34801561099257600080fd5b50600a546105e8906001600160a01b031681565b3480156109b257600080fd5b5061035961271081565b60006109c6612734565b6109ce61278d565b6109d7826127d8565b6109df61281d565b60008311610a225760405162461bcd60e51b815260206004820152600b60248201526a5a45524f5f53484152455360a81b60448201526064015b60405180910390fd5b6002546040516370a0823160e01b81523060048201527f00000000000000000000000000000000000000000000000000000000000000006001600160a01b0316906370a0823190602401602060405180830381865afa158015610a89573d6000803e3d6000fd5b505050506040513d601f19601f82011682018060405250810190610aad9190613cb5565b610ab79085613ce4565b610ac19190613cfb565b905060005b610ace611776565b811015610b9c576000610ae082612427565b90506000610aed60025490565b826001600160a01b031663ef6283d96040518163ffffffff1660e01b8152600401602060405180830381865afa158015610b2b573d6000803e3d6000fd5b505050506040513d601f19601f82011682018060405250810190610b4f9190613cb5565b610b599088613ce4565b610b639190613cfb565b90508015610b87576000610b7783836128a3565b9050610b838186613d1d565b9450505b50508080610b9490613d30565b915050610ac6565b5060025483601054610bae9190613ce4565b610bb89190613cfb565b610bc29082613d49565b9050610bce3384612af3565b60145460009015610cbc57600061271060145484610bec9190613ce4565b610bf69190613cfb565b60095460405163a9059cbb60e01b81526001600160a01b039182166004820152602481018390529192507f0000000000000000000000000000000000000000000000000000000000000000169063a9059cbb906044016020604051808303816000875af1158015610c6b573d6000803e3d6000fd5b505050506040513d601f19601f82011682018060405250810190610c8f9190613d5c565b915081610cae5760405162461bcd60e51b8152600401610a1990613d79565b610cb88184613d49565b9250505b60405163a9059cbb60e01b81526001600160a01b038481166004830152602482018490527f0000000000000000000000000000000000000000000000000000000000000000169063a9059cbb906044016020604051808303816000875af1158015610d2b573d6000803e3d6000fd5b505050506040513d601f19601f82011682018060405250810190610d4f9190613d5c565b905080610d6e5760405162461bcd60e51b8152600401610a1990613d79565b6040518281526001600160a01b0384169033907fc44aeefa68e8b9c1ad5f7be4b0dd194580f81f5c362862e72196503a320eb7a1906020015b60405180910390a350610dba6001600755565b92915050565b610dc8611234565b610dd0612c27565b6009546040516370a0823160e01b81523060048201526000916001600160a01b038481169263a9059cbb92919091169083906370a0823190602401602060405180830381865afa158015610e28573d6000803e3d6000fd5b505050506040513d601f19601f82011682018060405250810190610e4c9190613cb5565b6040516001600160e01b031960e085901b1681526001600160a01b03909216600483015260248201526044016020604051808303816000875af1158015610e97573d6000803e3d6000fd5b505050506040513d601f19601f82011682018060405250810190610ebb9190613d5c565b905080610eda5760405162461bcd60e51b8152600401610a1990613d79565b5050565b606060038054610eed90613db0565b80601f0160208091040260200160405190810160405280929190818152602001828054610f1990613db0565b8015610f665780601f10610f3b57610100808354040283529160200191610f66565b820191906000526020600020905b815481529060010190602001808311610f4957829003601f168201915b5050505050905090565b600033610f7e818585612c6c565b5060019392505050565b610f90612c27565b610f99816127d8565b306001600160a01b0316816001600160a01b031663fbfa77cf6040518163ffffffff1660e01b8152600401602060405180830381865afa158015610fe1573d6000803e3d6000fd5b505050506040513d601f19601f820116820180604052508101906110059190613de4565b6001600160a01b03161461104b5760405162461bcd60e51b815260206004820152600d60248201526c1253959053125117d590555315609a1b6044820152606401610a19565b604051636eb1769f60e11b81526001600160a01b0382811660048301523060248301526000917f00000000000000000000000000000000000000000000000000000000000000009091169063dd62ed3e90604401602060405180830381865afa1580156110bc573d6000803e3d6000fd5b505050506040513d601f19601f820116820180604052508101906110e09190613cb5565b1161111c5760405162461bcd60e51b815260206004820152600c60248201526b4e4f5f414c4c4f57414e434560a01b6044820152606401610a19565b611127600e82612d88565b6040516001600160a01b038216907f1e5e8707b7c2ab49bd59ab613cf8f10c34b54ba794ce53ecc7e47b010edf19c890600090a250565b600060105461116b612039565b6040516370a0823160e01b81523060048201527f00000000000000000000000000000000000000000000000000000000000000006001600160a01b0316906370a0823190602401602060405180830381865afa1580156111cf573d6000803e3d6000fd5b505050506040513d601f19601f820116820180604052508101906111f39190613cb5565b6111fd9190613d1d565b6112079190613d49565b905090565b6000611216612734565b61121e612e27565b6112288383612e74565b9050610dba6001600755565b60085460ff166112775760405162461bcd60e51b815260206004820152600e60248201526d454d455247454e43595f4d4f444560901b6044820152606401610a19565b565b600a546001600160a01b031633146112c55760405162461bcd60e51b815260206004820152600f60248201526e494e56414c49445f4144445245535360881b6044820152606401610a19565b600a546009546040516001600160a01b0392831692909116907fff0b32b909f3fb702fe6ac1f682adcca675b9dfaa03ad8f46b4b17c4058a93fc90600090a3600a54600980546001600160a01b0319166001600160a01b03909216919091179055565b60003361133685828561300d565b611341858585613087565b506001949350505050565b611354612734565b61135c612e27565b600b54600c5461136c9042613d49565b10156113ba5760405162461bcd60e51b815260206004820152601d60248201527f4c61737420686172766573742077697468696e207468726573686f6c640000006044820152606401610a19565b42600c556113c661281d565b600f546113db906001600160a01b03166127d8565b6000805b6113e7611776565b8110156114ae5760006113f982612427565b9050806001600160a01b031663bf56fb3c89898581811061141c5761141c613e01565b905060200281019061142e9190613e17565b6040518363ffffffff1660e01b815260040161144b929190613e5e565b6020604051808303816000875af115801561146a573d6000803e3d6000fd5b505050506040513d601f19601f8201168201806040525081019061148e9190613cb5565b6114989084613d1d565b92505080806114a690613d30565b9150506113df565b50600f54604051630414de3960e41b815260009182916001600160a01b039091169063414de390906114e69089908990600401613e5e565b6020604051808303816000875af1158015611505573d6000803e3d6000fd5b505050506040513d601f19601f820116820180604052508101906115299190613cb5565b60128490559050600061153b60025490565b61154361115e565b61155590670de0b6b3a7640000613ce4565b61155f9190613cfb565b90506011548111156115b35761157f612710670de0b6b3a7640000613ce4565b6013546002546011546115929085613d49565b61159c9190613ce4565b6115a69190613ce4565b6115b09190613cfb565b92505b82601060008282546115c59190613d1d565b9091555050601181905584156116af57600f546012546000916001600160a01b037f000000000000000000000000000000000000000000000000000000000000000081169263a9059cbb929091169061161f908890613d49565b6040516001600160e01b031960e085901b1681526001600160a01b03909216600483015260248201526044016020604051808303816000875af115801561166a573d6000803e3d6000fd5b505050506040513d601f19601f8201168201806040525081019061168e9190613d5c565b9050806116ad5760405162461bcd60e51b8152600401610a1990613d79565b505b6012546040805184815260208101929092527f6a549789c59523a9b3a82413f26960a47408bd1f15b2bab1a7df5d3151c25edb910160405180910390a1505050506116fa6001600755565b5050505050565b600061120761322b565b600033610f7e81858561171e8383612671565b6117289190613d1d565b612c6c565b611735612c27565b600d5460408051918252602082018390527ffbe912fdd0185617e8cafd12d97b59175b90e15f5c629faf6413469af54ee080910160405180910390a1600d55565b60408051600e8054602081810284018501855283018181526000946112079493928492918491908401828280156117d657602002820191906000526020600020905b81546001600160a01b031681526001909101906020018083116117b8575b505050505081525050515190565b6117ec612c27565b6117f5816127d8565b306001600160a01b0316816001600160a01b031663fbfa77cf6040518163ffffffff1660e01b8152600401602060405180830381865afa15801561183d573d6000803e3d6000fd5b505050506040513d601f19601f820116820180604052508101906118619190613de4565b6001600160a01b0316146118a75760405162461bcd60e51b815260206004820152600d60248201526c1253959053125117d590555315609a1b6044820152606401610a19565b604051636eb1769f60e11b81526001600160a01b0382811660048301523060248301526000917f00000000000000000000000000000000000000000000000000000000000000009091169063dd62ed3e90604401602060405180830381865afa158015611918573d6000803e3d6000fd5b505050506040513d601f19601f8201168201806040525081019061193c9190613cb5565b116119785760405162461bcd60e51b815260206004820152600c60248201526b4e4f5f414c4c4f57414e434560a01b6044820152606401610a19565b600f546040516001600160a01b038084169216907fec66fc0aaf4785186ea9aa2f2220431dc88a757f281d03ce78910ce0439e23c290600090a3600f80546001600160a01b0319166001600160a01b0392909216919091179055565b6119dc612c27565b600b546040518291907fb16e26d342efd55f62072aaaedf7de09854002955d0b2157eece60a1ee03fc9090600090a3600b55565b6000611a1a612734565b611a2261278d565b611a2b826127d8565b6000611a3561115e565b90508315611af8576040516323b872dd60e01b8152336004820152306024820152604481018590526000907f00000000000000000000000000000000000000000000000000000000000000006001600160a01b0316906323b872dd906064016020604051808303816000875af1158015611ab3573d6000803e3d6000fd5b505050506040513d601f19601f82011682018060405250810190611ad79190613d5c565b905080611af65760405162461bcd60e51b8152600401610a1990613d79565b505b3415611d29576040516370a0823160e01b81523060048201526000907f00000000000000000000000000000000000000000000000000000000000000006001600160a01b0316906370a0823190602401602060405180830381865afa158015611b65573d6000803e3d6000fd5b505050506040513d601f19601f82011682018060405250810190611b899190613cb5565b905060007f00000000000000000000000000000000000000000000000000000000000000006001600160a01b03163460405160006040518083038185875af1925050503d8060008114611bf8576040519150601f19603f3d011682016040523d82523d6000602084013e611bfd565b606091505b5050905080611c3f5760405162461bcd60e51b815260206004820152600e60248201526d575241505f554e5355434345535360901b6044820152606401610a19565b6040516370a0823160e01b81523060048201526000907f00000000000000000000000000000000000000000000000000000000000000006001600160a01b0316906370a0823190602401602060405180830381865afa158015611ca6573d6000803e3d6000fd5b505050506040513d601f19601f82011682018060405250810190611cca9190613cb5565b905034611cd78483613d49565b14611d195760405162461bcd60e51b815260206004820152601260248201527115d4905417d55394d550d0d154d4d195531360721b6044820152606401610a19565b611d233488613d1d565b96505050505b60008411611d495760405162461bcd60e51b8152600401610a1990613e8d565b611d5161281d565b6000611d5c60025490565b11611d675783611d92565b601254611d749082613d1d565b84611d7e60025490565b611d889190613ce4565b611d929190613cfb565b915081600003611dd25760405162461bcd60e51b815260206004820152600b60248201526a5a45524f5f53484152455360a81b6044820152606401610a19565b611ddc8383613352565b600d546002541115611e245760405162461bcd60e51b8152602060048201526011602482015270159055531517d0d05417d4915050d21151607a1b6044820152606401610a19565b6040518481526001600160a01b0384169033907f2790b90165fd3973ad7edde4eca71b4f8808dd4857a2a3a3e8ae5642a5cb196e90602001610da7565b60408051600e805460208181028401850185528301818152611ed79486949392849291849190840182828015611ec057602002820191906000526020600020905b81546001600160a01b03168152600190910190602001808311611ea2575b50505050508152505061341190919063ffffffff16565b611f165760405162461bcd60e51b815260206004820152601060248201526f24a72b20a624a22fa2ac22a1aaaa27a960811b6044820152606401610a19565b50565b611f21612c27565b611f2e6002612710613cfb565b8110611f6b5760405162461bcd60e51b815260206004820152600c60248201526b08c8a8abea89e9ebe90928e960a31b6044820152606401610a19565b60135460408051918252602082018390527f17519bd6596326e94ff406f9632728407b34e99c6ee45960b15bba05d67874c4910160405180910390a1601355565b611fb4612c27565b6008546040516001600160a01b0380841692610100900416907f60ed9ffad04b70bf58c43b18d1f0e54642250116c1137ac1cc4831449124350890600090a3600880546001600160a01b0390921661010002610100600160a81b0319909216919091179055565b6001600160a01b038116600090815260056020526040812054610dba565b600080805b612046611776565b8110156120ed57600061205882612427565b9050600080826001600160a01b031663968ed6006040518163ffffffff1660e01b81526004016040805180830381865afa15801561209a573d6000803e3d6000fd5b505050506040513d601f19601f820116820180604052508101906120be9190613eb2565b915091506120cb8161347b565b6120d58286613d1d565b945050505080806120e590613d30565b91505061203e565b50919050565b606060048054610eed90613db0565b600033816121108286612671565b9050838110156121705760405162461bcd60e51b815260206004820152602560248201527f45524332303a2064656372656173656420616c6c6f77616e63652062656c6f77604482015264207a65726f60d81b6064820152608401610a19565b6113418286868403612c6c565b600033610f7e818585613087565b612193612c27565b806010546121a19190613d49565b60105560095460405163a9059cbb60e01b81526001600160a01b039182166004820152602481018390526000917f0000000000000000000000000000000000000000000000000000000000000000169063a9059cbb906044016020604051808303816000875af1158015612219573d6000803e3d6000fd5b505050506040513d601f19601f8201168201806040525081019061223d9190613d5c565b90508061225c5760405162461bcd60e51b8152600401610a1990613d79565b6040518281527f860c0aa5520013080c2f65981705fcdea474d9f7c3daf954656ed5e65d692d1f9060200160405180910390a15050565b61229b612c27565b6122a4816127d8565b6122ad81611e61565b806001600160a01b03166328f73b3c6040518163ffffffff1660e01b8152600401600060405180830381600087803b1580156122e857600080fd5b505af11580156122fc573d6000803e3d6000fd5b50505050600080826001600160a01b031663968ed6006040518163ffffffff1660e01b81526004016040805180830381865afa158015612340573d6000803e3d6000fd5b505050506040513d601f19601f820116820180604052508101906123649190613eb2565b915091506123718161347b565b670de0b6b3a764000082106123b95760405162461bcd60e51b815260206004820152600e60248201526d08caa9c88a6bea89e9ebe90928e960931b6044820152606401610a19565b6123c4600e846134be565b6040516001600160a01b038416907f54b7a356ead1ccd0aa9d6598daa3200e0dfdfc0e1b7d90b2381739d4f561aeb090600090a2505050565b612405612c27565b600a80546001600160a01b0319166001600160a01b0392909216919091179055565b60408051600e805460208181028401850185528301818152600094610dba9487949093909284929091849184018282801561248b57602002820191906000526020600020905b81546001600160a01b0316815260019091019060200180831161246d575b50505050508152505061368990919063ffffffff16565b6124aa612c27565b6008805460ff19168215159081179091556040519081527fcc6bda015b6cb89b378ac6dc0294b882c1d0d41b117a7c7a0adb80d8ea7076cb9060200160405180910390a150565b60006124fb612734565b612503612e27565b61122883836128a3565b8342111561255d5760405162461bcd60e51b815260206004820152601d60248201527f45524332305065726d69743a206578706972656420646561646c696e650000006044820152606401610a19565b60007f6e71edae12b1b97f4d1f60370fef10105fa2faae0126114a169c64845d6126c988888861258c8c6136f6565b6040805160208101969096526001600160a01b0394851690860152929091166060840152608083015260a082015260c0810186905260e00160405160208183030381529060405280519060200120905060006125e78261371c565b905060006125f78287878761376a565b9050896001600160a01b0316816001600160a01b03161461265a5760405162461bcd60e51b815260206004820152601e60248201527f45524332305065726d69743a20696e76616c6964207369676e617475726500006044820152606401610a19565b6126658a8a8a612c6c565b50505050505050505050565b6001600160a01b03918216600090815260016020908152604080832093909416825291909152205490565b6126a4612c27565b6126b16002612710613cfb565b81106126f35760405162461bcd60e51b815260206004820152601160248201527008ab092a8be8c8a8abea89e9ebe90928e9607b1b6044820152606401610a19565b60145460408051918252602082018390527fa4aab21b1d3be6990ef2d3c38d4d4bf00beb04a40f936221373204a1b1db57a2910160405180910390a1601455565b6002600754036127865760405162461bcd60e51b815260206004820152601f60248201527f5265656e7472616e637947756172643a207265656e7472616e742063616c6c006044820152606401610a19565b6002600755565b60085460ff16156112775760405162461bcd60e51b8152602060048201526015602482015274454d455247454e43595f4d4f44455f41435449564560581b6044820152606401610a19565b6001600160a01b038116611f165760405162461bcd60e51b815260206004820152600c60248201526b4e554c4c5f4144445245535360a01b6044820152606401610a19565b60005b612828611776565b811015611f1657600061283a82612427565b9050806001600160a01b03166328f73b3c6040518163ffffffff1660e01b8152600401600060405180830381600087803b15801561287757600080fd5b505af115801561288b573d6000803e3d6000fd5b5050505050808061289b90613d30565b915050612820565b60006128ae83611e61565b600082116128ce5760405162461bcd60e51b8152600401610a1990613e8d565b6040516370a0823160e01b81523060048201526000907f00000000000000000000000000000000000000000000000000000000000000006001600160a01b0316906370a0823190602401602060405180830381865afa158015612935573d6000803e3d6000fd5b505050506040513d601f19601f820116820180604052508101906129599190613cb5565b604051633074985f60e21b8152600481018590529091506001600160a01b0385169063c1d2617c906024016020604051808303816000875af11580156129a3573d6000803e3d6000fd5b505050506040513d601f19601f820116820180604052508101906129c79190613cb5565b6040516370a0823160e01b81523060048201529092506000906001600160a01b037f000000000000000000000000000000000000000000000000000000000000000016906370a0823190602401602060405180830381865afa158015612a31573d6000803e3d6000fd5b505050506040513d601f19601f82011682018060405250810190612a559190613cb5565b905082612a628383613d49565b14612aa85760405162461bcd60e51b8152602060048201526016602482015275554e5355434345535346554c4c5f574954484452415760501b6044820152606401610a19565b846001600160a01b03167f553b41000d3ca57935adc3e9fd8ec21e08ca49ca241533a2fe6d263f0af09eb884604051612ae391815260200190565b60405180910390a2505092915050565b6001600160a01b038216612b535760405162461bcd60e51b815260206004820152602160248201527f45524332303a206275726e2066726f6d20746865207a65726f206164647265736044820152607360f81b6064820152608401610a19565b6001600160a01b03821660009081526020819052604090205481811015612bc75760405162461bcd60e51b815260206004820152602260248201527f45524332303a206275726e20616d6f756e7420657863656564732062616c616e604482015261636560f01b6064820152608401610a19565b6001600160a01b0383166000818152602081815260408083208686039055600280548790039055518581529192917fddf252ad1be2c89b69c2b068fc378daa952ba7f163c4a11628f55a4df523b3ef91015b60405180910390a35b505050565b6009546001600160a01b031633146112775760405162461bcd60e51b815260206004820152600860248201526727a7262cafa3a7ab60c11b6044820152606401610a19565b6001600160a01b038316612cce5760405162461bcd60e51b8152602060048201526024808201527f45524332303a20617070726f76652066726f6d20746865207a65726f206164646044820152637265737360e01b6064820152608401610a19565b6001600160a01b038216612d2f5760405162461bcd60e51b815260206004820152602260248201527f45524332303a20617070726f766520746f20746865207a65726f206164647265604482015261737360f01b6064820152608401610a19565b6001600160a01b0383811660008181526001602090815260408083209487168084529482529182902085905590518481527f8c5be1e5ebec7d5bd14f71427d1e84f3dd0314c0f7b2291e5b200ac8c7c3b9259101612c19565b60408051835460208181028301840184528201818152612df2938692849291849190840182828015612de357602002820191906000526020600020905b81546001600160a01b03168152600190910190602001808311612dc5575b50505050508152505082613411565b610eda5781546001810183556000838152602090200180546001600160a01b0383166001600160a01b03199091161790555050565b60085461010090046001600160a01b031633146112775760405162461bcd60e51b815260206004820152600b60248201526a27a7262cafa5a2a2a822a960a91b6044820152606401610a19565b6000612e7f83611e61565b60008211612e9f5760405162461bcd60e51b8152600401610a1990613e8d565b60405163a9059cbb60e01b81526001600160a01b038481166004830152602482018490526000917f00000000000000000000000000000000000000000000000000000000000000009091169063a9059cbb906044016020604051808303816000875af1158015612f13573d6000803e3d6000fd5b505050506040513d601f19601f82011682018060405250810190612f379190613d5c565b905080612f565760405162461bcd60e51b8152600401610a1990613d79565b60405163255cdfb360e11b8152600481018490526001600160a01b03851690634ab9bf66906024016020604051808303816000875af1158015612f9d573d6000803e3d6000fd5b505050506040513d601f19601f82011682018060405250810190612fc19190613cb5565b9150836001600160a01b03167f9e8e5ad707f058ddf566a98739c53c91cd14634956e731ad45e60638f6b59c4784604051612ffe91815260200190565b60405180910390a25092915050565b60006130198484612671565b9050600019811461308157818110156130745760405162461bcd60e51b815260206004820152601d60248201527f45524332303a20696e73756666696369656e7420616c6c6f77616e63650000006044820152606401610a19565b6130818484848403612c6c565b50505050565b6001600160a01b0383166130eb5760405162461bcd60e51b815260206004820152602560248201527f45524332303a207472616e736665722066726f6d20746865207a65726f206164604482015264647265737360d81b6064820152608401610a19565b6001600160a01b03821661314d5760405162461bcd60e51b815260206004820152602360248201527f45524332303a207472616e7366657220746f20746865207a65726f206164647260448201526265737360e81b6064820152608401610a19565b6001600160a01b038316600090815260208190526040902054818110156131c55760405162461bcd60e51b815260206004820152602660248201527f45524332303a207472616e7366657220616d6f756e7420657863656564732062604482015265616c616e636560d01b6064820152608401610a19565b6001600160a01b03848116600081815260208181526040808320878703905593871680835291849020805487019055925185815290927fddf252ad1be2c89b69c2b068fc378daa952ba7f163c4a11628f55a4df523b3ef910160405180910390a3613081565b6000306001600160a01b037f00000000000000000000000000000000000000000000000000000000000000001614801561328457507f000000000000000000000000000000000000000000000000000000000000000046145b156132ae57507f000000000000000000000000000000000000000000000000000000000000000090565b50604080517f00000000000000000000000000000000000000000000000000000000000000006020808301919091527f0000000000000000000000000000000000000000000000000000000000000000828401527f000000000000000000000000000000000000000000000000000000000000000060608301524660808301523060a0808401919091528351808403909101815260c0909201909252805191012090565b6001600160a01b0382166133a85760405162461bcd60e51b815260206004820152601f60248201527f45524332303a206d696e7420746f20746865207a65726f2061646472657373006044820152606401610a19565b80600260008282546133ba9190613d1d565b90915550506001600160a01b038216600081815260208181526040808320805486019055518481527fddf252ad1be2c89b69c2b068fc378daa952ba7f163c4a11628f55a4df523b3ef910160405180910390a35050565b6000805b83515181101561347157826001600160a01b03168460000151828151811061343f5761343f613e01565b60200260200101516001600160a01b03160361345f576001915050610dba565b8061346981613d30565b915050613415565b5060009392505050565b804314611f165760405162461bcd60e51b81526020600482015260116024820152701195539114d7d393d517d5541110551151607a1b6044820152606401610a19565b60005b604080518454602081810283018401845282018181526135289387928492918491908401828280156117d6576020028201919060005260206000209081546001600160a01b031681526001909101906020018083116117b857505050505081525050515190565b811015612c2257816001600160a01b031683600001828154811061354e5761354e613e01565b6000918252602090912001546001600160a01b031603613677576040805184546020818102830184018452820181815286936001936135d49390928692849284918401828280156117d6576020028201919060005260206000209081546001600160a01b031681526001909101906020018083116117b857505050505081525050515190565b6135de9190613d49565b815481106135ee576135ee613e01565b60009182526020909120015483546001600160a01b039091169084908390811061361a5761361a613e01565b600091825260209091200180546001600160a01b0319166001600160a01b0392909216919091179055825483908061365457613654613ed6565b600082815260209020810160001990810180546001600160a01b03191690550190555b8061368181613d30565b9150506134c1565b600061369483515190565b82106136d25760405162461bcd60e51b815260206004820152600d60248201526c0929cac82989288be929c888ab609b1b6044820152606401610a19565b82518051839081106136e6576136e6613e01565b6020026020010151905092915050565b6001600160a01b03811660009081526005602052604090208054600181018255906120ed565b6000610dba61372961322b565b8360405161190160f01b6020820152602281018390526042810182905260009060620160405160208183030381529060405280519060200120905092915050565b600080600061377b87878787613792565b9150915061378881613856565b5095945050505050565b6000807f7fffffffffffffffffffffffffffffff5d576e7357a4501ddfe92f46681b20a08311156137c9575060009050600361384d565b6040805160008082526020820180845289905260ff881692820192909252606081018690526080810185905260019060a0016020604051602081039080840390855afa15801561381d573d6000803e3d6000fd5b5050604051601f1901519150506001600160a01b0381166138465760006001925092505061384d565b9150600090505b94509492505050565b600081600481111561386a5761386a613eec565b036138725750565b600181600481111561388657613886613eec565b036138d35760405162461bcd60e51b815260206004820152601860248201527f45434453413a20696e76616c6964207369676e617475726500000000000000006044820152606401610a19565b60028160048111156138e7576138e7613eec565b036139345760405162461bcd60e51b815260206004820152601f60248201527f45434453413a20696e76616c6964207369676e6174757265206c656e677468006044820152606401610a19565b600381600481111561394857613948613eec565b03611f165760405162461bcd60e51b815260206004820152602260248201527f45434453413a20696e76616c6964207369676e6174757265202773272076616c604482015261756560f01b6064820152608401610a19565b6001600160a01b0381168114611f1657600080fd5b600080604083850312156139c857600080fd5b8235915060208301356139da816139a0565b809150509250929050565b6000602082840312156139f757600080fd5b8135613a02816139a0565b9392505050565b600060208083528351808285015260005b81811015613a3657858101830151858201604001528201613a1a565b506000604082860101526040601f19601f8301168501019250505092915050565b60008060408385031215613a6a57600080fd5b8235613a75816139a0565b946020939093013593505050565b600080600060608486031215613a9857600080fd5b8335613aa3816139a0565b92506020840135613ab3816139a0565b929592945050506040919091013590565b60008083601f840112613ad657600080fd5b50813567ffffffffffffffff811115613aee57600080fd5b602083019150836020828501011115613b0657600080fd5b9250929050565b8015158114611f1657600080fd5b8035613b2681613b0d565b919050565b600080600080600060608688031215613b4357600080fd5b853567ffffffffffffffff80821115613b5b57600080fd5b818801915088601f830112613b6f57600080fd5b813581811115613b7e57600080fd5b8960208260051b8501011115613b9357600080fd5b602092830197509550908701359080821115613bae57600080fd5b50613bbb88828901613ac4565b9094509250613bce905060408701613b1b565b90509295509295909350565b600060208284031215613bec57600080fd5b5035919050565b600060208284031215613c0557600080fd5b8135613a0281613b0d565b600080600080600080600060e0888a031215613c2b57600080fd5b8735613c36816139a0565b96506020880135613c46816139a0565b95506040880135945060608801359350608088013560ff81168114613c6a57600080fd5b9699959850939692959460a0840135945060c09093013592915050565b60008060408385031215613c9a57600080fd5b8235613ca5816139a0565b915060208301356139da816139a0565b600060208284031215613cc757600080fd5b5051919050565b634e487b7160e01b600052601160045260246000fd5b8082028115828204841417610dba57610dba613cce565b600082613d1857634e487b7160e01b600052601260045260246000fd5b500490565b80820180821115610dba57610dba613cce565b600060018201613d4257613d42613cce565b5060010190565b81810381811115610dba57610dba613cce565b600060208284031215613d6e57600080fd5b8151613a0281613b0d565b60208082526018908201527f5452414e534645525f4e4f545f5355434345535346554c4c0000000000000000604082015260600190565b600181811c90821680613dc457607f821691505b6020821081036120ed57634e487b7160e01b600052602260045260246000fd5b600060208284031215613df657600080fd5b8151613a02816139a0565b634e487b7160e01b600052603260045260246000fd5b6000808335601e19843603018112613e2e57600080fd5b83018035915067ffffffffffffffff821115613e4957600080fd5b602001915036819003821315613b0657600080fd5b60208152816020820152818360408301376000818301604090810191909152601f909201601f19160101919050565b6020808252600b908201526a16915493d7d05353d5539560aa1b604082015260600190565b60008060408385031215613ec557600080fd5b505080516020909101519092909150565b634e487b7160e01b600052603160045260246000fd5b634e487b7160e01b600052602160045260246000fdfea2646970667358221220c7d5e701426d2d25bf218d06388f7c86b4462032751ce16406f34af12a71d78964736f6c63430008110033",
    "linkReferences": {}
  },
  "methodIdentifiers": {
    "DOMAIN_SEPARATOR()": "3644e515",
    "DUST_LIMIT()": "42193473",
    "MAX_BPS()": "fd967f47",
    "acceptGovernance()": "238efcbc",
    "addYieldExecutor(address)": "0ee5c044",
    "allowance(address,address)": "dd62ed3e",
    "approve(address,uint256)": "095ea7b3",
    "balanceOf(address)": "70a08231",
    "collectFee(uint256)": "a969ff0a",
    "decimals()": "313ce567",
    "decreaseAllowance(address,uint256)": "a457c2d7",
    "deposit(uint256,address)": "6e553f65",
    "depositIntoYieldExecutor(address,uint256)": "1e3f7f01",
    "emergencyMode()": "0905f560",
    "exitFee()": "6284ae41",
    "governance()": "5aa6e675",
    "harvest(bytes[],bytes,bool)": "24e767c3",
    "harvestThreshold()": "44856659",
    "increaseAllowance(address,uint256)": "39509351",
    "isActiveYieldExecutor(address)": "6fd82999",
    "isEmergencyMode()": "20a194b8",
    "keeper()": "aced1661",
    "lastEpochYield()": "9bf4ea95",
    "lastHarvestedAt()": "ecb9da77",
    "maxDepositLimit()": "b63c44e7",
    "name()": "06fdde03",
    "nonces(address)": "7ecebe00",
    "pendingFee()": "643090bc",
    "pendingGovernance()": "f39c38a0",
    "performanceFee()": "87788782",
    "permit(address,address,uint256,uint256,uint8,bytes32,bytes32)": "d505accf",
    "prevSharePrice()": "e662822e",
    "removeYieldExecutor(address)": "aa4132bf",
    "setDepositCapLimit(uint256)": "52bdb797",
    "setEmergencyMode(bool)": "be32b3f8",
    "setExitFee(uint256)": "e5a583a9",
    "setGovernance(address)": "ab033ea9",
    "setHarvestThreshold(uint256)": "6ab02b15",
    "setKeeper(address)": "748747e6",
    "setPerformanceFee(uint256)": "70897b23",
    "setTradeExecutor(address)": "5767c659",
    "sweep(address)": "01681a62",
    "symbol()": "95d89b41",
    "totalSupply()": "18160ddd",
    "totalVaultFunds()": "18515a83",
    "totalYieldExecutorFunds()": "8b22ce3c",
    "totalYieldExecutors()": "53ff50c9",
    "tradeExecutor()": "a7f07011",
    "transfer(address,uint256)": "a9059cbb",
    "transferFrom(address,address,uint256)": "23b872dd",
    "wantToken()": "d23e0480",
    "withdraw(uint256,address)": "00f714ce",
    "withdrawFromYieldExecutor(address,uint256)": "cf8294a2",
    "yieldExecutorByIndex(uint256)": "b595afe8"
  },
  "id": 46
}