{
  "abi": [
    {
      "inputs": [
        {
          "internalType": "uint256",
          "name": "_a",
          "type": "uint256"
        },
        {
          "internalType": "uint256",
          "name": "_b",
          "type": "uint256"
        }
      ],
      "name": "add",
      "outputs": [
        {
          "internalType": "uint256",
          "name": "",
          "type": "uint256"
        }
      ],
      "stateMutability": "pure",
      "type": "function"
    },
    {
      "inputs": [
        {
          "internalType": "bool",
          "name": "_a",
          "type": "bool"
        },
        {
          "internalType": "bool",
          "name": "_b",
          "type": "bool"
        }
      ],
      "name": "and",
      "outputs": [
        {
          "internalType": "bool",
          "name": "",
          "type": "bool"
        }
      ],
      "stateMutability": "pure",
      "type": "function"
    },
    {
      "inputs": [
        {
          "internalType": "uint256",
          "name": "_a",
          "type": "uint256"
        },
        {
          "internalType": "uint256",
          "name": "_b",
          "type": "uint256"
        }
      ],
      "name": "avg",
      "outputs": [
        {
          "internalType": "uint256",
          "name": "",
          "type": "uint256"
        }
      ],
      "stateMutability": "pure",
      "type": "function"
    },
    {
      "inputs": [
        {
          "internalType": "address",
          "name": "_who",
          "type": "address"
        }
      ],
      "name": "balance",
      "outputs": [
        {
          "internalType": "uint256",
          "name": "",
          "type": "uint256"
        }
      ],
      "stateMutability": "view",
      "type": "function"
    },
    {
      "inputs": [],
      "name": "callerAddress",
      "outputs": [
        {
          "internalType": "address",
          "name": "",
          "type": "address"
        }
      ],
      "stateMutability": "view",
      "type": "function"
    },
    {
      "inputs": [
        {
          "internalType": "uint256",
          "name": "_a",
          "type": "uint256"
        },
        {
          "internalType": "uint256",
          "name": "_b",
          "type": "uint256"
        }
      ],
      "name": "div",
      "outputs": [
        {
          "internalType": "uint256",
          "name": "",
          "type": "uint256"
        }
      ],
      "stateMutability": "pure",
      "type": "function"
    },
    {
      "inputs": [
        {
          "internalType": "uint256",
          "name": "_a",
          "type": "uint256"
        },
        {
          "internalType": "uint256",
          "name": "_b",
          "type": "uint256"
        }
      ],
      "name": "eq",
      "outputs": [
        {
          "internalType": "bool",
          "name": "",
          "type": "bool"
        }
      ],
      "stateMutability": "pure",
      "type": "function"
    },
    {
      "inputs": [
        {
          "internalType": "address",
          "name": "_a",
          "type": "address"
        },
        {
          "internalType": "address",
          "name": "_b",
          "type": "address"
        }
      ],
      "name": "eqAddress",
      "outputs": [
        {
          "internalType": "bool",
          "name": "",
          "type": "bool"
        }
      ],
      "stateMutability": "pure",
      "type": "function"
    },
    {
      "inputs": [
        {
          "internalType": "bool",
          "name": "_val",
          "type": "bool"
        }
      ],
      "name": "f",
      "outputs": [],
      "stateMutability": "pure",
      "type": "function"
    },
    {
      "inputs": [
        {
          "internalType": "uint256",
          "name": "_a",
          "type": "uint256"
        },
        {
          "internalType": "uint256",
          "name": "_b",
          "type": "uint256"
        }
      ],
      "name": "gt",
      "outputs": [
        {
          "internalType": "bool",
          "name": "",
          "type": "bool"
        }
      ],
      "stateMutability": "pure",
      "type": "function"
    },
    {
      "inputs": [
        {
          "internalType": "uint256",
          "name": "_a",
          "type": "uint256"
        },
        {
          "internalType": "uint256",
          "name": "_b",
          "type": "uint256"
        }
      ],
      "name": "gte",
      "outputs": [
        {
          "internalType": "bool",
          "name": "",
          "type": "bool"
        }
      ],
      "stateMutability": "pure",
      "type": "function"
    },
    {
      "inputs": [
        {
          "internalType": "uint256",
          "name": "_a",
          "type": "uint256"
        },
        {
          "internalType": "uint256",
          "name": "_b",
          "type": "uint256"
        }
      ],
      "name": "lt",
      "outputs": [
        {
          "internalType": "bool",
          "name": "",
          "type": "bool"
        }
      ],
      "stateMutability": "pure",
      "type": "function"
    },
    {
      "inputs": [
        {
          "internalType": "uint256",
          "name": "_a",
          "type": "uint256"
        },
        {
          "internalType": "uint256",
          "name": "_b",
          "type": "uint256"
        }
      ],
      "name": "lte",
      "outputs": [
        {
          "internalType": "bool",
          "name": "",
          "type": "bool"
        }
      ],
      "stateMutability": "pure",
      "type": "function"
    },
    {
      "inputs": [
        {
          "internalType": "uint256",
          "name": "_a",
          "type": "uint256"
        },
        {
          "internalType": "uint256",
          "name": "_b",
          "type": "uint256"
        }
      ],
      "name": "max",
      "outputs": [
        {
          "internalType": "uint256",
          "name": "",
          "type": "uint256"
        }
      ],
      "stateMutability": "pure",
      "type": "function"
    },
    {
      "inputs": [
        {
          "internalType": "uint256",
          "name": "_a",
          "type": "uint256"
        },
        {
          "internalType": "uint256",
          "name": "_b",
          "type": "uint256"
        }
      ],
      "name": "min",
      "outputs": [
        {
          "internalType": "uint256",
          "name": "",
          "type": "uint256"
        }
      ],
      "stateMutability": "pure",
      "type": "function"
    },
    {
      "inputs": [
        {
          "internalType": "uint256",
          "name": "_a",
          "type": "uint256"
        },
        {
          "internalType": "uint256",
          "name": "_b",
          "type": "uint256"
        }
      ],
      "name": "mul",
      "outputs": [
        {
          "internalType": "uint256",
          "name": "",
          "type": "uint256"
        }
      ],
      "stateMutability": "pure",
      "type": "function"
    },
    {
      "inputs": [
        {
          "internalType": "uint256",
          "name": "_a",
          "type": "uint256"
        },
        {
          "internalType": "uint256",
          "name": "_b",
          "type": "uint256"
        }
      ],
      "name": "ne",
      "outputs": [
        {
          "internalType": "bool",
          "name": "",
          "type": "bool"
        }
      ],
      "stateMutability": "pure",
      "type": "function"
    },
    {
      "inputs": [
        {
          "internalType": "address",
          "name": "_a",
          "type": "address"
        },
        {
          "internalType": "address",
          "name": "_b",
          "type": "address"
        }
      ],
      "name": "neAddress",
      "outputs": [
        {
          "internalType": "bool",
          "name": "",
          "type": "bool"
        }
      ],
      "stateMutability": "pure",
      "type": "function"
    },
    {
      "inputs": [
        {
          "internalType": "bool",
          "name": "_a",
          "type": "bool"
        },
        {
          "internalType": "bool",
          "name": "_b",
          "type": "bool"
        }
      ],
      "name": "or",
      "outputs": [
        {
          "internalType": "bool",
          "name": "",
          "type": "bool"
        }
      ],
      "stateMutability": "pure",
      "type": "function"
    },
    {
      "inputs": [],
      "name": "self",
      "outputs": [
        {
          "internalType": "address",
          "name": "",
          "type": "address"
        }
      ],
      "stateMutability": "view",
      "type": "function"
    },
    {
      "inputs": [
        {
          "internalType": "uint256",
          "name": "_a",
          "type": "uint256"
        },
        {
          "internalType": "uint256",
          "name": "_b",
          "type": "uint256"
        }
      ],
      "name": "sub",
      "outputs": [
        {
          "internalType": "uint256",
          "name": "",
          "type": "uint256"
        }
      ],
      "stateMutability": "pure",
      "type": "function"
    },
    {
      "inputs": [
        {
          "internalType": "bool",
          "name": "_val",
          "type": "bool"
        }
      ],
      "name": "t",
      "outputs": [],
      "stateMutability": "pure",
      "type": "function"
    },
    {
      "inputs": [],
      "name": "timestamp",
      "outputs": [
        {
          "internalType": "uint256",
          "name": "",
          "type": "uint256"
        }
      ],
      "stateMutability": "view",
      "type": "function"
    },
    {
      "inputs": [
        {
          "internalType": "uint256",
          "name": "_val",
          "type": "uint256"
        }
      ],
      "name": "toBytes32",
      "outputs": [
        {
          "internalType": "bytes32",
          "name": "",
          "type": "bytes32"
        }
      ],
      "stateMutability": "pure",
      "type": "function"
    },
    {
      "inputs": [
        {
          "internalType": "bytes32",
          "name": "_val",
          "type": "bytes32"
        }
      ],
      "name": "toUint256",
      "outputs": [
        {
          "internalType": "uint256",
          "name": "",
          "type": "uint256"
        }
      ],
      "stateMutability": "pure",
      "type": "function"
    },
    {
      "inputs": [
        {
          "internalType": "address payable",
          "name": "_who",
          "type": "address"
        },
        {
          "internalType": "uint256",
          "name": "_amt",
          "type": "uint256"
        },
        {
          "internalType": "uint256",
          "name": "_gas",
          "type": "uint256"
        }
      ],
      "name": "transfer",
      "outputs": [
        {
          "internalType": "bool",
          "name": "",
          "type": "bool"
        }
      ],
      "stateMutability": "nonpayable",
      "type": "function"
    },
    {
      "inputs": [
        {
          "internalType": "address payable",
          "name": "_who",
          "type": "address"
        },
        {
          "internalType": "uint256",
          "name": "_amt",
          "type": "uint256"
        }
      ],
      "name": "transfer",
      "outputs": [
        {
          "internalType": "bool",
          "name": "",
          "type": "bool"
        }
      ],
      "stateMutability": "nonpayable",
      "type": "function"
    }
  ],
  "bytecode": {
    "object": "0x608060405234801561001057600080fd5b506107bd806100206000396000f3fe608060405234801561001057600080fd5b50600436106101b95760003560e01c806398c3a6c1116100f9578063c8a4ac9c11610097578063e3d670d711610071578063e3d670d7146103bb578063ea6515c4146103e3578063f1f3da0e146103f6578063faa8aab11461040957600080fd5b8063c8a4ac9c14610368578063cb2d0acd1461037b578063db140068146103a857600080fd5b8063a9059cbb116100d3578063a9059cbb14610329578063b47733291461033c578063b67d77c51461034f578063b80777ea1461036257600080fd5b806398c3a6c1146102f05780639f6ee0fc14610303578063a391c15b1461031657600080fd5b806357c483391161016657806373aafb531161014057806373aafb5314610245578063771602f71461029e5780637ae2b5c7146102b15780637ba803aa146102c457600080fd5b806357c48339146102455780636d5433e6146102645780637104ddb21461027757600080fd5b806332148d731161019757806332148d731461020b57806333151e4c1461021d57806340c5489d1461023057600080fd5b8063095bcdb6146101be578063118fc88c146101e657806321e5749b146101f9575b600080fd5b6101d16101cc36600461058b565b61040f565b60405190151581526020015b60405180910390f35b6101d16101f43660046105c0565b61047d565b6101d16102073660046105c0565b1090565b6101d16102193660046105c0565b1490565b6101d161022b3660046105c0565b141590565b61024361023e3660046105f7565b610487565b005b610256610253366004610612565b90565b6040519081526020016101dd565b6102566102723660046105c0565b610494565b305b60405173ffffffffffffffffffffffffffffffffffffffff90911681526020016101dd565b6102566102ac3660046105c0565b6104ac565b6102566102bf3660046105c0565b6104b8565b6101d16102d236600461062b565b73ffffffffffffffffffffffffffffffffffffffff90811691161490565b6102436102fe3660046105f7565b6104c7565b6101d1610311366004610664565b6104d2565b6102566103243660046105c0565b6104e3565b6101d1610337366004610697565b6104ef565b6101d161034a3660046105c0565b111590565b61025661035d3660046105c0565b610529565b42610256565b6102566103763660046105c0565b610535565b6101d161038936600461062b565b73ffffffffffffffffffffffffffffffffffffffff9081169116141590565b6102566103b63660046105c0565b610541565b6102566103c93660046106c3565b73ffffffffffffffffffffffffffffffffffffffff163190565b6101d16103f13660046105c0565b101590565b6101d1610404366004610664565b610559565b33610279565b6000808473ffffffffffffffffffffffffffffffffffffffff168385604051600060405180830381858888f193505050503d806000811461046c576040519150601f19603f3d011682016040523d82523d6000602084013e610471565b606091505b50909695505050505050565b8082105b92915050565b8061049157600080fd5b50565b60008183116104a357816104a5565b825b9392505050565b60006104a5828461070f565b60008183106104a357816104a5565b801561049157600080fd5b60008280156104a557509092915050565b60006104a58284610722565b60405160009073ffffffffffffffffffffffffffffffffffffffff84169083156108fc0290849084818181858888f1979650505050505050565b60006104a5828461075d565b60006104a58284610770565b6000600261054f838561070f565b6104a59190610722565b600082806104a557509092915050565b73ffffffffffffffffffffffffffffffffffffffff8116811461049157600080fd5b6000806000606084860312156105a057600080fd5b83356105ab81610569565b95602085013595506040909401359392505050565b600080604083850312156105d357600080fd5b50508035926020909101359150565b803580151581146105f257600080fd5b919050565b60006020828403121561060957600080fd5b6104a5826105e2565b60006020828403121561062457600080fd5b5035919050565b6000806040838503121561063e57600080fd5b823561064981610569565b9150602083013561065981610569565b809150509250929050565b6000806040838503121561067757600080fd5b610680836105e2565b915061068e602084016105e2565b90509250929050565b600080604083850312156106aa57600080fd5b82356106b581610569565b946020939093013593505050565b6000602082840312156106d557600080fd5b81356104a581610569565b7f4e487b7100000000000000000000000000000000000000000000000000000000600052601160045260246000fd5b80820180821115610481576104816106e0565b600082610758577f4e487b7100000000000000000000000000000000000000000000000000000000600052601260045260246000fd5b500490565b81810381811115610481576104816106e0565b8082028115828204841417610481576104816106e056fea2646970667358221220f2574c60fff5d554121fffca8413ca9b69562c3e828f98b372e9c4b4af74fa5664736f6c63430008120033",
    "linkReferences": {}
  },
  "methodIdentifiers": {
    "add(uint256,uint256)": "771602f7",
    "and(bool,bool)": "9f6ee0fc",
    "avg(uint256,uint256)": "db140068",
    "balance(address)": "e3d670d7",
    "callerAddress()": "faa8aab1",
    "div(uint256,uint256)": "a391c15b",
    "eq(uint256,uint256)": "32148d73",
    "eqAddress(address,address)": "7ba803aa",
    "f(bool)": "98c3a6c1",
    "gt(uint256,uint256)": "21e5749b",
    "gte(uint256,uint256)": "b4773329",
    "lt(uint256,uint256)": "118fc88c",
    "lte(uint256,uint256)": "ea6515c4",
    "max(uint256,uint256)": "6d5433e6",
    "min(uint256,uint256)": "7ae2b5c7",
    "mul(uint256,uint256)": "c8a4ac9c",
    "ne(uint256,uint256)": "33151e4c",
    "neAddress(address,address)": "cb2d0acd",
    "or(bool,bool)": "f1f3da0e",
    "self()": "7104ddb2",
    "sub(uint256,uint256)": "b67d77c5",
    "t(bool)": "40c5489d",
    "timestamp()": "b80777ea",
    "toBytes32(uint256)": "73aafb53",
    "toUint256(bytes32)": "57c48339",
    "transfer(address,uint256)": "a9059cbb",
    "transfer(address,uint256,uint256)": "095bcdb6"
  },
  "id": 38
}